:020000040800F2
:1000000000280020613400085F340008452D0008F6
:100010005D3400085D3400085D3400080000000015
:100020000000000000000000000000005F34000835
:100030005F340008000000005F340008FD1A00086B
:100040005D3400085D3400085D3400085D3400084C
:100050005D3400085D3400085D3400085D3400083C
:100060005D3400085D340008ED0F00085D340008C1
:100070005D3400085D3400085D3400085D3400081C
:100080005D3400085D3400085D3400085D3400080C
:100090005D3400085D3400085D340008D50E0008AA
:1000A0005D3400085D3400085D3400085D340008EC
:1000B000C92900085D3400085D3400085D3400087B
:1000C0005D3400085D3400085D3400085D340008CC
:1000D0005D3400085D340008B12700085D34000875
:1000E000610F00085D3400085D3400085D340008CD
:1000F0005D3400085D3400085D3400085D3400089C
:100100005D3400085D3400085D3400085D3400088B
:100110005D3400085D3400085D3400085D3400087B
:100120005D3400085D3400085D3400085D3400086B
:100130005D3400085D3400085D3400085D3400085B
:100140005D3400085D3400085D3400085D3400084B
:1001500010B57B4C4FF47F41204602F0B7FF4FF4BF
:100160007F4301220321204602F07EFE002306E0A9
:10017000744A4FF47F4142F823100133DBB20F2B56
:10018000F6D90023704A1370704A137004E0704A65
:100190000021D1540133DBB20F2BF8D96D4C4FF451
:1001A0008051204602F092FF4FF48053022200213A
:1001B000204602F059FE21464FF4805003F0CAF861
:1001C00002214FF4805003F07DF84FF4805003F08B
:1001D000BBF84FF4805003F099F84FF4805120465B
:1001E00002F088FF4FF40061204602F06FFF4FF4E9
:1001F000006302220021204602F036FE2146102034
:1002000003F0A8F80221102003F05CF8102003F09E
:100210009BF8102003F07AF84FF40061204602F0BA
:1002200069FF4FF40071204602F050FF4FF4007355
:1002300002220021204602F017FE21464FF40070F2
:1002400003F088F802214FF4007003F03BF84FF4FC
:10025000007003F079F84FF4007003F057F84FF492
:100260000071204602F046FF4FF48071204602F0F4
:100270002DFF4FF4807302220021204602F0F4FD8E
:1002800021464FF4807003F065F802214FF480702E
:1002900003F018F84FF4807003F056F84FF48070B4
:1002A00003F034F84FF48071204602F023FF4FF43E
:1002B000805302220021204602F0D6FD4FF48051E7
:1002C000204602F003FF4FF48051204602F012FF57
:1002D00004F58064402302220021204602F0C4FD80
:1002E0004021204602F0F2FE4021204602F002FFAB
:1002F000172003F022F9172003F01FF9282003F03C
:100300001CF90A21172003F025F90A21282003F0FF
:1003100021F90A21084603F01DF90F4B01241C7036
:1003200000221A700D4802F032F90D4B0F221A709C
:100330000C4B1C700C4B1C700C4B1C7010BD00BF88
:10034000000C01400C000020AB040020AA04002097
:100350008C040020000801405E050020584600087B
:10036000F10400204C0500204C000020F004002087
:10037000054B1B78DBB2054A1278D2B29A4201D003
:100380000120704700207047AA040020AB04002021
:10039000094B1B78DBB2094A1278D2B29A4208D0D4
:1003A000074AD05CC0B2013303F00F03024A137056
:1003B00070470020704700BFAA040020AB04002053
:1003C0008C0400200B4B1B78D8B2013303F00F03D1
:1003D000094A1278D2B29A420AD0084A1154054A00
:1003E00013701078044B1B78C01A00F00F00704790
:1003F00000207047AB040020AA0400208C040020D9
:1004000010B582B08DF807108DF806208DF80530F4
:100410009DF80630DBB2072B1BD8DFE813F008008D
:1004200038005B007E00A100C400E7000A019DF8CF
:100430000530E3B19DF80730DBB2AA4951F823300B
:100440009DF80720D2B223F0102343F4805341F8E3
:1004500022309DF80730DBB2A34A52F82320A34B89
:100460001B689B1A052B00F2078102B010BD9DF896
:100470000730DBB29B4951F823309DF80720D2B2F8
:1004800023F0102343F0805341F82230E1E79DF838
:1004900005307BB19DF80730DBB2924951F823302B
:1004A0009DF80720D2B223F0202343F4005341F8F3
:1004B0002230CEE79DF80730DBB28A4951F823306D
:1004C0009DF80720D2B223F0202343F0005341F8D7
:1004D0002230BEE79DF805307BB19DF80730DBB2D6
:1004E000804951F823309DF80720D2B223F04023F1
:1004F00043F4804341F82230ABE79DF80730DBB28C
:10050000784951F823309DF80720D2B223F04023D8
:1005100043F0804341F822309BE79DF805307BB1E2
:100520009DF80730DBB26F4951F823309DF8072062
:10053000D2B223F0802343F4004341F8223088E70D
:100540009DF80730DBB2674951F823309DF807204A
:10055000D2B223F0802343F0004341F8223078E701
:100560009DF805307BB19DF80730DBB25D4951F84D
:1005700023309DF80720D2B223F0082343F4006310
:1005800041F8223065E79DF80730DBB2554951F854
:1005900023309DF80720D2B223F0082343F00063F4
:1005A00041F8223055E79DF805307BB19DF80730C2
:1005B000DBB24C4951F823309DF80720D2B223F02A
:1005C000042343F4806341F8223042E79DF807306A
:1005D000DBB2444951F823309DF80720D2B223F012
:1005E000042343F0806341F8223032E79DF8053060
:1005F0007BB19DF80730DBB23A4951F823309DF8C2
:100600000720D2B223F0012343F4807341F8223053
:100610001FE79DF80730DBB2324951F823309DF8CF
:100620000720D2B223F0012343F0807341F8223037
:100630000FE79DF805307BB19DF80730DBB2294903
:1006400051F823309DF80720D2B223F0022343F45F
:10065000007341F82230FCE69DF80730DBB22149F7
:1006600051F823309DF80720D2B223F0022343F043
:10067000007341F82230ECE641F2103002F054FEF3
:100680001B4C204602F033FDC0F30320194B1880A9
:100690004FF40061204602F01EFD88B1154A138810
:1006A0009BB243F0040313809DF80720114B1B8875
:1006B0009BB29A420CD041F2103002F027FED4E6F1
:1006C0000C4A13889BB223F004039BB21380EBE720
:1006D000084B1B889BB2034A52F82320064BC3F8F1
:1006E000102CE8E70C000020AC040020540500208A
:1006F00000080140A80400200000014010B5044695
:10070000FFF736FE00B910BD2046FFF741FEC0F3EB
:10071000C00300F00702C0F307112046FFF770FE88
:10072000F1E7000030B585B00446ADF80610BDF81D
:1007300006309BB203EB8303B34901EB4303DB7841
:1007400003F00303012B58D0022B00F005810BB1FD
:1007500005B030BDBDF806309BB203EB830301EB5F
:1007600043031B791B098DF80F309DF80F30DBB266
:10077000A64A127893421FD1BDF806309BB203EB14
:100780008303A14A02EB43035B791B098DF80F3009
:100790009DF80F30DBB29D4A12789342D8D0BDF855
:1007A00006309BB203EB8303974A02EB430359796C
:1007B0002046FFF707FECBE7BDF806309BB203EB00
:1007C000830301EB43031B7903F007038DF80E301D
:1007D000BDF806309BB203EB830301EB43031B79A7
:1007E000C3F3C0038DF80D309DF80F109DF80E2057
:1007F0009DF80D30FFF704FEBEE7854B1B78934252
:1008000054D0BDF806309BB203EB83037E4A02EB63
:1008100043031B791B098DF80F309DF80F30DBB2B5
:100820007A4A127893421FD1BDF806309BB203EB8F
:100830008303754A02EB43035B791B098DF80F3084
:100840009DF80F30DBB2714A1278934280D0BDF828
:1008500006309BB203EB83036B4A02EB43035979E7
:100860002046FFF7AFFD73E7BDF806309BB2664A3E
:1008700003EB830302EB43031B7903F007038DF8BB
:100880000E30BDF806309BB203EB830302EB43034B
:100890001B79C3F3C0038DF80D309DF80F109DF840
:1008A0000E209DF80D30FFF7ABFDBDE7BDF806301B
:1008B0009BB203EB8303544A02EB43039B791B096E
:1008C0008DF80F309DF80F30DBB2504A127893420A
:1008D00020D1BDF806309BB203EB83034A4A02EBFA
:1008E0004303DB791B098DF80F309DF80F30DBB225
:1008F000464A127893423FF42BAFBDF806309BB2C4
:1009000003EB8303404A02EB4303D9792046FFF708
:1009100059FD1DE7BDF806309BB23B4A03EB83034C
:1009200002EB43039B7903F007038DF80E30BDF80B
:1009300006309BB203EB830302EB43039B79C3F3C3
:10094000C0038DF80D309DF80F109DF80E209DF816
:100950000D30FFF755FDBCE7002A5BD1BDF806302E
:100960009BB203EB8303284A02EB43031B791B0969
:100970008DF80F309DF80F30DBB2244A1278934285
:1009800020D1BDF806309BB203EB83031E4A02EB75
:1009900043035B791B098DF80F309DF80F30DBB2F4
:1009A0001A4A127893423FF4D3AEBDF806309BB298
:1009B00003EB8303144A02EB430359792046FFF704
:1009C00001FDC5E6BDF806309BB20F4A03EB830379
:1009D00002EB43031B7903F007038DF80E30BDF8DB
:1009E00006309BB203EB830302EB43031B79C3F393
:1009F000C0038DF80D309DF80F109DF80E209DF866
:100A00000D30FFF7FDFCBCE700710008F104002089
:100A10004C050020BDF806309BB203EB83036A4A05
:100A200002EB43031B7A1B098DF80F309DF80F3042
:100A3000DBB2664A1278934221D0BDF806309BB2F1
:100A400003EB8303604A02EB43031B7A642B37D02A
:100A5000BDF806309BB203EB83035B4A02EB430312
:100A60001B7A6C2B6ED0BDF806309BB203EB830370
:100A7000554A02EB4303197A2046FFF7A3FCBDF861
:100A800006309BB203EB83034F4A02EB43035B7ACE
:100A90001B098DF80F309DF80F30DBB24B4A1278EE
:100AA00093423FF455AEBDF806309BB203EB83038F
:100AB000454A02EB4303597A2046FFF783FC47E699
:100AC000434A936923F0102343F480539361414BCD
:100AD0009A69414B1B689B1A052BB9D941F210301A
:100AE00002F022FC3D4D284602F001FBC0F3032337
:100AF0003B4A13804FF40061284602F0ECFA78B1CB
:100B0000374A13889BB243F004031380344B1B888D
:100B10009BB2062B0CD041F2103002F0F7FB97E7A6
:100B20002F4A13889BB223F004039BB21380EDE796
:100B3000274B9A692B4BC3F8102C274B1A68254B6F
:100B40009A61E8E7224A936923F0102343F0805327
:100B50009361204B9A69204B1B689B1A052B82D905
:100B600041F2103002F0E0FB1C4D284602F0BFFAC3
:100B7000C0F303231A4A13804FF40061284602F0A1
:100B8000AAFA78B1164A13889BB243F00403138083
:100B9000134B1B889BB2062B0CD041F2103002F095
:100BA000B5FB60E70E4A13889BB223F004039BB2A7
:100BB0001380EDE7064B9A690A4BC3F8102C064BDD
:100BC0001A68044B9A61E8E700710008F1040020FC
:100BD0000C000020AC040020540500200008014057
:100BE000A80400200000014010B582B00446924BDA
:100BF0001B78012B3ED0022B4ED0002B2CD08F4BDC
:100C00001B78DBB2012B5CD08C4B1B78DBB2012B49
:100C100065D08A4B1B78DBB2022B6ED00123ADF876
:100C20000630BDF806309BB203EB8303844A12F80A
:100C30001320824B5B78DBB29A4271D0BDF806304C
:100C40009BB2B3F5997F6BD2BDF806309BB20133EE
:100C50009BB2ADF80630E4E7784B1B78DBB2012B92
:100C6000CDD1764B5B78DBB2142BC8D1724B01220D
:100C70001A70C4E7714B1B78DBB2012B03D06E4BAB
:100C800000221A70BBE76D4B5B78DBB2112BF6D1FB
:100C9000694B02221A70B2E7684B1B78DBB2012B5A
:100CA00003D0654B00221A70A9E7644B5B78DBB276
:100CB000712BF6D10221634802F00AFA02F02FFCF0
:100CC0009DE75E4B5B78DBB2772B9DD15E4A137854
:100CD00083F0010313705D4B01221A7028E0574B1B
:100CE0005B78DBB2122B04D0544B5B78DBB2592B10
:100CF0008FD1574B01221A708BE7504B5B78DBB2D8
:100D0000F02B8BD14D4B9B78DBB2122B04D04B4B8D
:100D10009B78DBB2592B81D14D4B00221A707DE7B5
:100D2000464B1B78DBB2012B04D0444B1B78EBB94C
:100D300002B010BD414B5A78D2B2BDF806309BB21A
:100D400003EB83033E4911F813309A42EDD1BDF80D
:100D500006309BB2B3F5997FE7D2BDF806103C4B45
:100D60001A7889B22046FFF7DDFCE1E7BDF80630CE
:100D70009BB2B3F5997FDBD2BDF806309BB203EB93
:100D800083032F4A02EB43035A782C4B9B78DBB248
:100D90009A420DD0BDF806309BB2B3F5997F07D2C9
:100DA000BDF806309BB201339BB2ADF80630E3E7E5
:100DB000224B1B78DBB2022B1BD0BDF806309BB256
:100DC00003EB83031E4A02EB43039A781B4BDB7849
:100DD000DBB29A423ED0BDF806309BB2B3F5997FA4
:100DE00038D2BDF806309BB201339BB2ADF8063065
:100DF000E3E7124B5A78D2B2BDF806309BB203EB50
:100E000083030F4911F813309A42D6D10B4B9A78CD
:100E1000D2B2BDF806309BB203EB830301EB430370
:100E20005B789A42C9D1BDF80610094B1A7889B28D
:100E30002046FFF777FC7BE788040020EC040020C5
:100E400000710008000C01404C050020F004002057
:100E50009C0400201C4B1B78DBB2032B7FF468AF93
:100E6000194B5A78D2B2BDF806309BB203EB83031C
:100E7000164911F813309A427FF45AAF124B9A7800
:100E8000D2B2BDF806309BB203EB830301EB430300
:100E90005B789A427FF44CAF0B4BDA78D2B2BDF854
:100EA00006309BB203EB830301EB43039B789A422A
:100EB0007FF43EAFBDF80610054B1A7889B2204684
:100EC000FFF730FC34E700BFEC040020007100089D
:100ED0009C04002010B51C4C4021204602F0F8F87C
:100EE000204602F004F9C0F30320184B18804FF499
:100EF0000061204602F0EFF8F0B1144A13889BB26B
:100F000043F004031380114C23889BB2104A52F81B
:100F10002320104BC3F8102C40210B4802F0D6F8C8
:100F200041F2103002F010FA23889BB20A4A11688D
:100F30000A4A42F8231010BD044A13889BB223F0DA
:100F400004039BB21380DEE700080140A8040020E0
:100F50000C0000200000014054050020AC040020DB
:100F600010B51C4C8021204602F0B2F8204602F059
:100F7000BEF8C0F30320184B18804FF400612046E0
:100F800002F0A9F8F0B1144A13889BB243F00403AD
:100F90001380114C23889BB2104A52F82320104B27
:100FA000C3F8102C80210B4802F090F841F2103069
:100FB00002F0CAF923889BB20A4A11680A4A42F829
:100FC000231010BD044A13889BB223F004039BB284
:100FD0001380DEE700080140A80400200C00002078
:100FE0000000014054050020AC04002070470000C0
:100FF00008B50221014802F06BF808BD000C014061
:101000000023064A1370064A137004E0054A0021C3
:10101000D1540133DBB23F2BF8D9704706050020CD
:10102000050500200805002038B5174C02230022D2
:101030000321204601F018FF0221204602F046F865
:10104000124D4FF40041284602F040F84FF400439F
:1010500001220321284601F007FF4FF400412846F2
:1010600002F048F88021204602F030F88023012267
:101070000321204601F0F8FE8021204602F03AF8D4
:10108000FFF7BEFF38BD00BF000C01400008014063
:10109000054B1B78DBB2054A1278D2B29A4201D0D6
:1010A000012070470020704705050020060500203C
:1010B000084B1B78DBB2084A1278D2B29A4207D0AA
:1010C000C05CC0B2013303F03F03024A13707047A3
:1010D00000207047050500200605002008B540F2F5
:1010E000214101F0C1FB08BD10B502214FF0804045
:1010F00002F066F80B4B00221A7080210A4801F0BA
:10110000E5FF0A4C4FF40041204601F0E1FF1021B9
:10111000204601F0DDFF40F22241782001F0A4FBDF
:1011200010BD00BFF4040020000C01400008014085
:1011300008B58021044801F0CBFF40F223410A208A
:1011400001F092FB08BD00BF000C014008B5084B40
:101150001A68084B1A604FF40041074801F0B6FFC7
:10116000064B01221A704FF0804001F0A9FB08BD28
:1011700054050020FC04002000080140490500201F
:1011800010B504464B4B1A684B4B1A604B4B196811
:101190005B6842F21172914273F1000322D2484B14
:1011A0001B889BB240F2014293421FD0454B1878F6
:1011B000C0B2454B1B7813B3434B1B78DBB2082BF3
:1011C0001DD8414B1B785A1E01239340184211D061
:1011D00080213E4801F07AFF3B4A13780133DBB2AD
:1011E00013703CE03A4801F0D2F9D8E7394B18784F
:1011F000C0B2DEE78021354801F06AFFECE7324BF0
:101200001B78DBB2092B20D02F4B1B78DBB20A2BCB
:101210002BD02D4B1B78DBB20A2B20D96CBB2A4B71
:1012200000221A70264B1B889BB240F20142934267
:101230002FD0234B1B889BB240F2034293422DD107
:101240001F4B40F204421A8009E002F093F938B9CA
:1012500080211E4801F03AFF1B4B0A221A7010BD74
:1012600080211A4801F034FFF6E78021174801F089
:101270002DFF154B0B221A70F1E78021134801F066
:1012800025FF0F4B4FF480621A80134B00221A7017
:10129000C5E70B4B40F202421A80E0E780210B4881
:1012A00001F014FF064B4FF480621A800A4B0022B3
:1012B0001A70D4E754050020FC040020101A002006
:1012C0004A050020F204002049050020000C0140DE
:1012D0008C460008F30400204805002038B5044679
:1012E0006F4B1B784BB16F4B1A685B68792A73F1AF
:1012F000000302D36A4B00221A706B4B1A686B4BC7
:101300001A60674B1B78A3B1654B1B784BB3644BDA
:101310001B78DBB2082B24D8614A1078013884404E
:1013200063490B781C430C7013780133DBB21370E4
:1013300021E080215F4801F0C9FE5D4B00221A7058
:10134000FF235D4A13705D4A1370554B01221A70DA
:101350008CB15B4A138801331380514B00221A7001
:1013600009E04F4B1B78DBB2092B05D04C4B1B78A7
:10137000DBB20A2B08D038BD504B1C70484A13789A
:101380000133DBB21370F6E7454B00221A704A4B6B
:101390001C70474B1D78494B187840EA450002F015
:1013A000E9F808B1012C07D0454A138801331380AE
:1013B0003B4B00221A70DEE7424B1B889BB2B3F511
:1013C000806F19D03F4B1B889BB240F20242934280
:1013D00022D03C4B1B889BB240F204429342CAD1BC
:1013E000FA2D49D0FE2D52D0364B4FF480621A8030
:1013F0002B4B00221A70BEE7334B1B78D9B2013356
:1014000003F03F03314A1278D2B29A42B3D0304A45
:1014100055542D4A1370AEE7FA2D0DD0FE2D23D072
:10142000284B4FF480621A801D4B00221A70244A08
:101430001388013313809EE7264B1B78DBB2FF2B0A
:101440000AD1204B4FF480621A80154B00221A708B
:10145000214B01221A708EE71A4B40F203421A8088
:101460009620FFF73BFE86E7164B40F201421A80BA
:101470009620FFF733FE7EE7124B4FF480621A800E
:10148000074B00221A70144B01221A7073E70D4BA0
:1014900040F201421A809620FFF720FE6BE700BF62
:1014A00048050020101A002054050020FC040020EC
:1014B000F5040020000C01404D050020F904002037
:1014C000500500204A0500200605002005050020E3
:1014D00008050020F2040020F404002038B504467A
:1014E00020B92E4B1B78DBB2834226D02C4B002038
:1014F0000021C3E90001294B1C702A4B1B889BB2B9
:1015000040F20142934235D0264B1B889BB240F2F9
:10151000034293422ED0234B1B889BB240F20142E0
:10152000934206D01F4B1B889BB240F2034293426A
:101530002FD12046FFF724FE38BD19491A4D0B68FC
:101540004A6828686D681B1842EB05020B604A6008
:10155000164999424FF000039341CCD280211448A0
:1015600001F0B4FD0F4B4FF480621A80114B002242
:101570001A70C0E7104B1A68104B1B689B1A032B9C
:10158000C9D9084B4FF480621A800A4B00221A70A6
:10159000C1E72046FFF7A2FECEE700BFF604002019
:1015A000001A00204A050020101A00203F0D0300F9
:1015B000000C014048050020FC04002054050020D8
:1015C00008B5074B1870074B1970074B00221A70AB
:1015D000064B40F201421A80FFF786FD08BD00BFAE
:1015E000F3040020F2040020F40400204A05002047
:1015F00010B584B05B4B1C685B4B00221A705B48D3
:1016000000F0C5FF03E0574B1A68594B1A60554B61
:101610001B681B1B4A2B03D8FFF73AFD0028F2D0AA
:101620005448FFF745FD544B18701B7893B1524B4B
:101630001B78DBB2AA2B14D0504800F0A8FF4E4B09
:101640001878694601F042F8684600F0A0FF4C485F
:1016500000F09DFF434B1C68FF21F220FFF7B0FF15
:1016600004E0484800F093FFF4E700BF464B1B78C6
:1016700023B93C4B1B681B1B082BF6D9424B1B782C
:10168000002B3ED0374B1C6800E000BFFFF700FD89
:1016900020B9344B1B681B1B022BF6D93548FFF7CA
:1016A00007FD354B18701B78DBB2AB2B25D12D4BCA
:1016B0001C6800E000BFFFF7EBFC20B9294B1B685A
:1016C0001B1B022BF6D92B48FFF7F2FC2A4B187094
:1016D0001B78DBB2832B03D0234B1878C0B213E006
:1016E000214B01221A70294800F051FF1D4B1C6844
:1016F0007F21F320FFF764FF09E01B4B1878C0B28D
:1017000002E0194B1878C0B204B010BD00BF1E4BE8
:101710001B7823B9134B1B681B1B022BF6D91A4BE2
:101720001B7833B11A4800F032FF0F4B1878C0B263
:10173000EAE70C4B1C68FF21F820FFF741FF124B32
:101740001B7833B9074B1B681B1B022B01D800BF4A
:10175000F5E70D4B1B78002BE7D00E4800F017FF84
:10176000E3E700BF5405002001050020A046000863
:10177000FC0400200805002000050020E8460008C1
:10178000F0470008DC460008F4040020F446000896
:101790000C4700084447000808B50B4B4FF0ED0C10
:1017A00083F800C042EA400252B242EA8102D2B259
:1017B000064B1A70064B00221A70064B40F201428B
:1017C0001A80FFF791FC08BDF3040020F20400200A
:1017D000F40400204A0500200023044A1370044A40
:1017E0001370044A1370044A13707047F804002001
:1017F00002050020030500200405002038B5824BB7
:101800001B78002B40F0FD8003F0FF05FFF740FC44
:101810000446002800F0F6807B4B1B78002B40F03C
:10182000EE807A48FFF744FC794B1870794B1B78AF
:10183000DBB2072BEAD8DFE813F008004B00910079
:10184000B800C100CA00D300DC00714B1B7823B183
:101850006F4B1B78DBB2DF2B19D96D4B1B78DBB2DA
:10186000E02B1FD06A4B1B78DBB2E12B25D0684BF5
:101870001B78DBB2F02BC9D10123674A1370644A8D
:101880001178664A51701370624A1370BEE7604B5C
:101890001B78624A5370012313705B4A1370FFF781
:1018A0009BFFAFE001235E4A1370594A11785B4AEF
:1018B00051701370574A1370A8E70123594A1370E7
:1018C000534A1178554A51701370524A13709DE76C
:1018D000534B1B7803F0FF040BB34D4B1B78DBB26B
:1018E000F02B13D04A4B1B78DBB2122B02D1FFF73F
:1018F00073FF8BE7464B1A78484B9A7002221A7096
:10190000414B01221A70FFF767FF7BE0404B1B78C9
:10191000424A9370022313703E4A137076E7414B9C
:101920001B7843B13A4B1B783C4A937002231370E7
:10193000384A13706AE7384B1B7803F0FF04002B1A
:101940003FF464AF324B1A78344B9A7002221A700B
:101950002D4B01221A70FFF73FFF53E0304B1B78ED
:1019600003F0FF049BB12A4B1B78DBB2122B02D190
:10197000FFF732FF4AE7264B1A78284BDA7003222A
:101980001A70214B01221A70FFF726FF3AE0254B0F
:101990001B78002B3FF43AAF1D4B1B781F4AD370C6
:1019A000032313701B4A137030E71E4B1B78002B68
:1019B0003FF42CAF174B04221A7027E7194B1B7802
:1019C000002B3FF423AF134B05221A701EE7154B73
:1019D0001B78002B3FF41AAF0E4B06221A7015E746
:1019E000104B1B78002B3FF411AF0A4B07221A70E3
:1019F0000CE7054B01221A70FFF7EEFE02E02C46C1
:101A000000E00024204638BDF7040020080500202F
:101A100000050020F804002004050020EC0400204C
:101A2000020500200305002010B51F4C01230022F1
:101A30000321204601F018FA0121204601F046FB5F
:101A4000102300220321204601F00EFA1021204627
:101A500001F03CFB022300220321204601F004FA9E
:101A60000221204601F032FB2023002203212046E0
:101A700001F0FAF92021204601F028FB8023002202
:101A80000321204601F0F0F98021204601F01EFBE1
:101A9000402300220321204601F0E6F940212046A0
:101AA00001F014FB10BD00BF0008014008B564211F
:101AB000FF2001F04FFD002001F020FD0A4801F059
:101AC00017FD0023094A1360094A1360094A13707D
:101AD00001F01EFD01F02AFD4FF400530122022106
:101AE000054801F0C1F908BDDF930400540500204A
:101AF000580500205C0500200010014010B582B0A0
:101B00000121354801F0E4FA01F04EFB334A136835
:101B100001331360324A136801331360314B1B7871
:101B200013B112681D2A21D81BB92D4B1B68062B37
:101B300025D82C4B1B7833B12B4B1A7882F001023D
:101B40001A701B7823BB294B1A8892B2284B1B882A
:101B50009BB29A4204D0254B1B889BB2244A138027
:101B600001211D4801F0B2FA02B010BD4FF400513E
:101B7000204801F0B3FA1A4B00221A60D9E74FF45B
:101B800000511C4801F0AAFA154B00221A60D0E758
:101B900001A8FEF7B3FD4FF480510F4801F09BFA06
:101BA000041E18BF01244021134801F094FA0038A4
:101BB00018BF0120114B1B78A34207D0104B012204
:101BC0001A700E4B1C700F4B1870BCE70D4B1B7836
:101BD0008342F3D1F5E700BF00080140540500201F
:101BE00058050020010500205C050020500500205C
:101BF0005205002000100140000C01404E0500205D
:101C0000F00400204F05002070B50E461546012354
:101C10000B700023FF2B13D81C58B4F1FF3F01D1E8
:101C20000133F7E72B8801332B80002333702B8897
:101C3000012B09D02B88022B0AD02B88032B0BD029
:101C400033786BB9307870BD074800F0A0FCF1E73D
:101C5000064800F09CFCF0E7054800F098FCEFE730
:101C6000044800F094FCEDE770470008884700083E
:101C7000A4470008C047000808B5064B1B7803B905
:101C800008BD01F0C1FB034B00221A7001F0D4FB28
:101C9000F6E700BFE011002008B5164BDB6813F42F
:101CA000804F0CD1134BDB6813F0040F10D1114B94
:101CB000DB6813F0100F14D100F07AFC08BD0E4859
:101CC00000F065FC0B4AD36843F48043D360E9E736
:101CD0000A4800F05CFC074AD36843F00403D36071
:101CE000E5E7074800F053FC024AD36843F01003CD
:101CF000D360E1E700200240CC470008F447000829
:101D00001C480008F8B507460E4600253FE000BF16
:101D100000F022FC0028FAD000F026FC044603283C
:101D200005D00D2824D00A281DD10EE000BF5E206A
:101D300000F024FC0028F9D000E000BF432000F0B0
:101D40001DFC0028F9D013E000BF0D2000F016FCA8
:101D50000028F9D000E000BF0A2000F00FFC0028A6
:101D6000F9D005E000BF204600F008FC0028F9D0BB
:101D7000032C14D0A4F13003DBB20A2B04D904F0F5
:101D80005F03413B052B0ED86B1C7C559DB2B542C1
:101D9000BED34FF400510A4801F0A0F9F8BD094B39
:101DA00001221A70F3E70A2D08D90A2C03D00D2C52
:101DB00001D00025EBE700237B55EAE70025E6E7A5
:101DC000001001405D0500202DE9F0471D46089CEC
:101DD00003783A2B05D0364B01221A700020BDE85B
:101DE000F087074689461646012100F0F4FB89F882
:101DF00000000321384600F0EEFB1FFA80F84FEA9E
:101E000008281FFA88F80521384600F0E4FB80B264
:101E10008044A5F800800721384600F0DCFB3070D4
:101E200099F800305BB999F800104900093138463B
:101E300000F0D1FB99F80020944600211FE04FF0FC
:101E4000000A99F800309A45EDDA1FFA8AF84FEA4D
:101E5000480C1FFA8CFC0CF1090C0FFA8CF1384677
:101E600000F0B9FB04F80A0008F101080FFA88FA3B
:101E7000E7E7635C9C445FFA8CFC013109B2914254
:101E8000F7DB33789C445FFA8CFC2A88D3B203EBEF
:101E90001223DBB26344DBB2184410F0FF0F02D010
:101EA000034B01221A70024B187880F0010096E76C
:101EB0005F0500202DE9F04395B005460E46144617
:101EC00000238DF80F308DF80E30ADF80C30394A04
:101ED000137005E04FF0FF0C04F803C001339BB210
:101EE000B3F5486FF6D34FF001094FF000089DF8A5
:101EF0000E30012B5AD031462846FFF703FF2E4BF8
:101F00001F78002FF3D104AB009303AB0DF10E0249
:101F10000DF10F012846FFF757FF00283FD09DF82D
:101F20000E30052BE3D801A252F823F0451F00081C
:101F3000AD1F0008791F0008EF1E00087D1F000874
:101F40009B1F0008B9F1000F02D0BDF80C80B94604
:101F500000220CE0BDF80C30A3EB08039BB2134445
:101F600014A9114411F8401CE154013292B29DF8B9
:101F70000F309342EED8BAE700BFB8E79DF80F30B4
:101F8000022B02D00B4B01221A709DF81030082B47
:101F9000ADD0084B01221A70A9E700BFA7E7074898
:101FA00000F0F5FA034B01221A70A0E715B0BDE866
:101FB000F08300BF5F0500205D050020F4490008A4
:101FC00070B506460D4614460F4B01221A700F4B92
:101FD00000221A7006E00E4800F0D9FA02E00D481F
:101FE00000F0D5FA084B1B7863B1224629463046EB
:101FF000FFF760FF044B1B78002BECD1034B1B78E1
:10200000002BECD170BD00BF5F0500205D050020F6
:10201000044A0008444A0008F0B589B001238DF84D
:102020001F30A34BA34A1A60A34800F0B0FA002562
:102030002C4603E0A14800F0AAFA0125C4F1006093
:1020400000F5E2409E4B984226D32DBB02A900F03A
:10205000DEFA9C4800F09BFA02A800F098FA9A4831
:1020600000F095FA02A94FF4486000F0E7FA02A8E0
:1020700000F08DFA8E4B1B681B68B3F1FF3FD9D07F
:10208000924800F084FA04F54864C4F1006303F553
:10209000E243874A1360D1E7002D3BD08C4800F023
:1020A00076FA834B1D6802A9284600F0B0FA8548ED
:1020B00000F06DFA02A800F06AFA864800F067FAAC
:1020C00002A94FF4486000F0B9FA02A800F05FFAE4
:1020D000814800F05CFA02A9804800F098FA02A852
:1020E00000F055FA00F064FAFFF7C6FDFFF7D4FDE3
:1020F0000024B4F5486F67D2784B1959601901F084
:10210000A1F901F099F900F025FE202840F0A68001
:102110000434EEE70023ADF80630714800F037FADA
:1021200016254EE000238DF81F309DF81F30002B40
:1021300035D00DF106020DF11F012046FFF764FDB9
:1021400000283AD1674800F022FABDF80630022B89
:1021500035D8AC0202A9204600F059FA594800F0DF
:1021600016FA02A800F013FA5F4800F010FA02A96C
:102170004FF4806000F062FA02A800F008FA5548B7
:1021800000F005FA01238DF81F300022B2F5806FB0
:10219000CBD2A35CDBB2FF2BC4D10132F6E700F057
:1021A00007FAFFF769FDFFF777FD204600F01CFEF8
:1021B00001F042F9FFF770FDBBE73D4B1C600135B4
:1021C000ADB21F2DC1D969E7FFF766FD474800F0A2
:1021D000DEF90023B3F5486F80F09C80344A116823
:1021E00023F0030408593D4AD518D258904201D132
:1021F0000433EFE751F82330B3F1FF3F30D03C48D0
:1022000000F0C5F92A4E306802A9204400F0FFF919
:1022100002A800F0BCF9374800F0B9F9336802A908
:10222000185900F0F4F902A800F0B1F9324800F0B2
:10223000AEF902A9284600F0EAF902A800F0A7F9D1
:102240002E4800F0A4F902A9286800F0E0F902A8DD
:1022500000F09DF92A4800F09AF9802009B0F0BDFD
:10226000284800F094F902A9284600F0D0F902A805
:1022700000F08DF9244800F08AF90D4D2B6802A971
:10228000185900F0C4F902A800F081F91F4800F0C5
:102290007EF9286802A9204400F0B9F902A800F0EC
:1022A00076F91B4800F073F900F082F9D5E700BF1A
:1022B000A004002000710008804A0008F84A0008C5
:1022C00000580008F04600081C490008E44A0008CD
:1022D000004B0008CC480008444B00086005002073
:1022E00090480008F0470008C84800082449000842
:1022F000AC4B00088049000890490008A449000838
:10230000A04B00084C4B0008684B0008744B0008B9
:10231000904B0008274B1A68274B9A423DD027481C
:1023200000F035F9234B1D6805F548551D6002A8DE
:1023300000F02DF90024042C2FD8214B33F8146021
:102340002B1902A91F46184600F061F902A800F0F7
:102350001EF900F02DF93146384600F00DFD01F070
:102360006BF800F0F7FC20287FF478AFFFF794FCBF
:10237000104B1B6833F82430B34204D1114800F0ED
:1023800006F90134D7E7104800F001F901F04CF8E4
:102390000E4B01221A70802060E70D4800F0F7F81C
:1023A0000C4800F0F4F801F03FF8084B01221A70D5
:1023B000002053E7A004002000710008E44B00084F
:1023C00000000020044C0008104C0008E011002020
:1023D0001C4C0008444C000810B5A0B0114800F097
:1023E000D6F8114800F0D3F8104A80216846FFF76C
:1023F000E7FD00F0DDF8FFF70FFE044608B1802886
:1024000005D10B4800F0C3F8204620B010BD0948A4
:1024100000F0BDF86946204600F0F9F8684600F083
:10242000B6F8EEE7784C0008C04C000860050020C4
:10243000F0470008D44C00088288531CC3F30903FA
:10244000B0F806C09C4509D0D0F800C00CF80210C6
:102450008380C088181AC0F3090070474FF6FF70D8
:102460007047000008B501460748FFF7E5FF01285F
:1024700000D008BD4FF04022D2F80C3443F0800366
:10248000C2F80C34F5E700BFEC1500208388C08843
:10249000181AC0F3090070470246C388B0F804C098
:1024A0009C450CD00068C05CACEB030CCCF3090C71
:1024B000A1F800C00133C3F30903D38070474FF084
:1024C000FF30704710B5044601461B48FFF7E4FF94
:1024D0001A4B1B78B3B12388B3F5407F13D3184B45
:1024E00000221A70174B1B7863B90123154A137029
:1024F000154A13704FF04022D2F80C3443F0800399
:10250000C2F80C3410BDB3F5007FFBD80D4B002290
:102510001A700B4B1B78002BF4D10123084A13705F
:10252000094A13704FF04022D2F80C3443F0800374
:10253000C2F80C34E6E700BFE41100204C00002094
:102540004D000020F4190020F5190020016000233F
:102550008380C3807047000008B50248FFF796FFEC
:1025600008BD00BFE411002000B583B00DF10600E6
:10257000FFF7A8FFC0B203B05DF804FB08B5FFF792
:1025800071FF4FF6FF73C01A18BF012008BD38B5A0
:102590000546002400E000BF285DFFF7EFFF00289C
:1025A000F9D00134A4B22B5D0BB17F2CF4D938BD26
:1025B00000E000BF4FF04023D3F80C3413F0800F3D
:1025C000F7D100E000BF4FF04023D3F8003413F000
:1025D000400FF7D07047435CA3F14102D2B2052A05
:1025E0000FD8373BDBB21B01DBB20131405CA0F1FD
:1025F0004102D2B2052A07D83738C0B21844C0B257
:102600007047303BDBB2EEE73038C0B2F6E7CB1DA7
:1026100000220A7208E000F00F0141F0300103F8D7
:10262000011900090132D2B2072A05D800F00F01C2
:102630000929F0D93731F2E77047000030B58BB087
:1026400004468E46EC46204D0FCDACE80F000FCD72
:10265000ACE80F0095E803008CE80300002304E0D9
:1026600000220EF803200133DBB20A2BF8D93CBB61
:1026700030238EF800300BB030BD0EEB010030255A
:102680000EF8015004E0A41A03780133037001230B
:10269000A242F8D90FE00CF1010C5FFA8CFCBCF1FE
:1026A000090FE8D80AAA02EB8C0252F8282CA242A1
:1026B000E3D9002BE1D1002BEDD00131C9B2EAE71B
:1026C000002319469C46EAE7F04C00084A1C002308
:1026D0008B7008E000F00F0141F0300102F80119A1
:1026E00000090133DBB2012B05D800F00F010929E5
:1026F000F0D93731F2E7704710B540F2913000F071
:10270000C1FD262000F019FF214C042302221146AE
:10271000204600F0A9FB082301220021204600F0FA
:10272000A3FB1C491C48FFF711FF1C491C48FFF77D
:102730000DFFA4F544444FF4E131204600F060FD64
:102740000821204600F070FD0021204600F075FDB4
:102750000021204600F077FD0021204600F07FFD9B
:102760000C21204600F075FD4FF04022D2F80C34C9
:1027700043F02003C2F80C34204600F076FD094BEC
:1027800001221A700023084A1370084A137010BD02
:1027900000080140F4150020EC150020EC11002089
:1027A000E41100204D000020F4190020F51900204C
:1027B00000B583B04FF04023D3F80C3413F0200F52
:1027C00006D04FF04023D3F8003413F0200F20D16F
:1027D0004FF04023D3F80C3413F0800F16D04FF095
:1027E0004023D3F8003413F0800F0FD0184B1B7820
:1027F000E3B1184B1B78184B1B7893B9144B00228C
:102800001A70132081B2154800F034FD03B05DF852
:1028100004FB124800F032FDC1B21148FFF70CFE74
:10282000D6E70B4B00221A701120EBE70DF10601E1
:102830000C48FFF731FEB0F1FF3FE3D14FF04022EB
:10284000D2F80C3423F08003C2F80C34DEE700BF6A
:10285000F5190020F41900204D000020004400402C
:10286000E4110020EC1500204FF080431A6822F09C
:1028700001021A601A6A22F001021A621A6842F012
:1028800004021A605A6942F001025A611A6922F080
:1028900001021A61C0F58030586289B2074A11807E
:1028A0001A6842F008021A601A6842F001021A60BF
:1028B000DA6842F00102DA60704700BF081A0020AF
:1028C00010B50446436B036923F4007323F002033D
:1028D000036100230362012383610223036283698E
:1028E00003F0F3038361036A43F0010303624FF6CD
:1028F000FF7100F083FC236823F0080323600022AB
:1029000000230D49C1E900230C49C1E900230C490A
:10291000C1E900230B4B4FF484621A80236823F033
:1029200004032360236843F001032360032120464E
:1029300000F042FC10BD00BF101A0020001A002059
:10294000F8190020081A002008B54FF4607000F054
:1029500099FC1C2000F0F1FD0B211C2000F0FAFD79
:102960004FF4004301220021144800F07DFA4FF497
:10297000007000F095FC0023012219464FF08040C2
:1029800000F02CFC0E4B196849000E4BA3FB0131E3
:10299000890C01394FF0804000F02EFC4FF6FF719A
:1029A0004FF0804000F02AFC4FF0804000F01FFC08
:1029B0004FF08040FFF784FF08BD00BF00080140D2
:1029C0005400002083DE1B432DE9F04801214FF025
:1029D000804000F0FAFB50B32021364800F078FB2D
:1029E00001214FF0804000F0F6FB334B1B889BB277
:1029F000A3F58463032B0BD8DFE803F00210131652
:102A00002E4CD4E90023501C43F10001C4E900011D
:102A10002021284800F05AFBBDE8F088FEF764FB4F
:102A2000F6E7FEF785FBF3E7FEF790FBF0E7022100
:102A30004FF0804000F0C9FB0028EDD01D4C022172
:102A4000204600F045FB4FF080431A6922F40072E3
:102A500022F002021A61194DD5E900BC4FEA0C427E
:102A60005F6B47EA0B4042EA1B41154AC2E900018D
:102A70001A6842F004021A605A6942F001025A616F
:102A80001A6922F001021A611A6822F004021A601F
:102A900000220023C5E9002380210A4800F01BFB27
:102AA000003818BF0120FEF719FD0221204600F072
:102AB0000DFBB1E700080140081A0020F8190020BA
:102AC000101A0020000C014030B583B000F0BAFAB3
:102AD0004FF4407000F0D6FB00214FF4807000F0FE
:102AE000F3F900214FF0007000F0EEF940F20230EF
:102AF00000F0C8FB40F2033000F0C4FB4FF441701B
:102B000000F0C0FBFEF790FAFEF78EFFFFF7F4FD32
:102B10007948FFF73CFD7948FFF739FD7848FFF722
:102B200036FD7848FFF733FD7748FFF730FD7748EB
:102B3000FFF72DFD01A8FDF70BFB754C20230222AA
:102B40000021204600F090F92021204600F0BEFA36
:102B50007048FFF71CFDFEF7A9FF6F48FFF717FD50
:102B6000FFF7F2FE6D48FFF712FD6D4B1B7813B1B6
:102B7000FEF73EFD68B9FEF73BFA41F2103000F077
:102B8000D3FB03214FF0804000F01AFBFFF724FC39
:102B9000FEE7432000F0C6FA00F0B4FA614B1C686F
:102BA000002211461046FEF7F7FDA31D5D4A12688C
:102BB000934201D900BFF8E7002211460120FEF739
:102BC000EBFD04F10C03574A1268934201D900BF90
:102BD000F7E7002201210846FEF7DEFD04F11203AB
:102BE000504A1268934201D900BFF7E7012211460B
:102BF0001046FEF7D1FD04F118034A4A12689342C9
:102C000001D900BFF7E7012211460020FEF7C4FDFD
:102C100004F11E03434A1268934201D900BFF7E74B
:102C2000012200210846FEF7B7FD04F124033D4AC6
:102C30001268934201D900BFF7E7002211461046FF
:102C4000FEF7AAFD04F12A03364A126893421DD901
:102C500000BFF7E74FF40051334800F03FFA6846F1
:102C6000FDF7C2FF314B1978314A11705978517014
:102C700099789170D978D17000221A705A709A7030
:102C8000DA702C4B1A702C4B1B78E3B9FEF7B6FDAB
:102C90000028F8D0254B1A78254B1B789A42D9D1B9
:102CA000224B5A78224B5B789A42D3D11F4B9A78A9
:102CB0001F4B9B789A42CDD11C4BDA781C4BDB78AA
:102CC0009A42C7D1CEE71C4B00221A701B4B1D78CD
:102CD0004FF480511A4800F0FEF9044640210C4898
:102CE00000F0F9F9B0FA80F25209B4FA84F1490916
:102CF0002846FEF751FDC9E7184D0008344D00087D
:102D0000404D0008444D0008504D0008544D000847
:102D1000000C0140A44D0008B04D0008CC4D000847
:102D20005E0500205405002000100140EC04002046
:102D3000A4040020F7040020F00400204C0500202B
:102D40000008014008B50248FFF721FCFEE700BF7C
:102D5000DC4D0008064A074BD068B3F8E0309BB260
:102D6000B3F5007F84BFD36C184300F03500704783
:102D70000020024000F7FF1F38B504460D4600F062
:102D80005BFB164BB3F8E0309BB2B3F5007F144BFE
:102D900019D9144A944216D91A6D42F001021A65E3
:102DA000258000F049FB0D4BB3F8E0309BB2B3F542
:102DB000007F0B4B0CD90B4A944209D91A6D22F0B3
:102DC00001021A6538BD1A6942F001021A61E7E78B
:102DD0001A6922F001021A61F4E700BF00F7FF1F31
:102DE00000200240FFFF070810B5044600F024FB56
:102DF0001A4BB3F8E0309BB2B3F5007F184B1DD9E6
:102E0000184A94421AD91A6D42F002021A655C659A
:102E10001A6D42F040021A6500F00EFB0F4BB3F83A
:102E2000E0309BB2B3F5007F0D4B11D90D4A9442AF
:102E30000ED91A6D22F002021A6510BD1A6942F00D
:102E400002021A615C611A6942F040021A61E3E70A
:102E50001A6922F002021A61EFE700BF00F7FF1FB4
:102E600000200240FFFF07082DE9F04100264FF047
:102E70000F0E9C46036847684CFA06F4E4071BD51E
:102E8000072E94BF9846B846B4B24FEA84048ABF6E
:102E9000203CA4B2A4B20EFA04F528EA0508A51C49
:102EA000ADB202FA05F501FA04F42C4344EA080431
:102EB000072E94BF234627460136102EDCD103602F
:102EC0004760BDE8F0810000034A536823F0E063E7
:102ED0000B4303435360704700000140062824D889
:102EE000DFE800F004090E13181D2000104B1868CD
:102EF000C0F3406070470E4B1868C0F3C060704765
:102F00000B4B1868C0F340707047094B1868C0F34A
:102F100040407047064B1868C0F340007047044BB0
:102F2000186AF9E7024B586AF6E70020704700BFBD
:102F300000100240024608B51046FFF7CFFF0028F8
:102F4000FAD008BD06282AD8DFE800F0040A0F14DA
:102F5000191E2400124A136843F0807313607047EF
:102F60000F4A136843F08063F8E70D4A136843F093
:102F70008053F3E70A4A136843F48033EEE7084AC4
:102F8000136843F00103E9E7054A136A43F00103BC
:102F900013627047024A536A43F001035362704759
:102FA00000100240034A536823F0030303435360B5
:102FB000704700BF00100240034A536823F47013A7
:102FC00043EA80435360704700100240034A53684D
:102FD00023F4803343EA00435360704700100240FB
:102FE000034A536823F4003343EA40435360704775
:102FF00000100240034A536823F4404343EA8033FD
:103000005360704700100240034A536823F4605332
:1030100043EAC0235360704700100240034A5368DC
:1030200023F4E06343EA002353607047001002403A
:10303000034A536823F0F00343EA001353607047D8
:103040000010024008B50420FFF77CFFFFF772FF75
:103050000020FFF7A7FF0320FFF774FFFFF76AFFC9
:103060000120FFF79FFF0020FFF7E2FF0320FFF79B
:10307000C1FF0420FFF7D2FF0020FFF7C5FF0220A9
:1030800000F0B8F90720FFF797FF0120FFF79EFF38
:103090000020FFF7A5FFFFF755FFFFF74BFF0220CA
:1030A000FFF780FF044B054A05491360054A11608C
:1030B000054A136008BD00BF00A24A04500000206A
:1030C0000051250254000020580000200161704783
:1030D000090401617047806808407047C36801EACD
:1030E000030221EA030141EA02410161704780685D
:1030F00080B2704741F48033836181618361836969
:10310000836970474CF6CC42014B1A60704700BF90
:1031100000300040024BD868C0F34000704700BF49
:103120000030004008B5C0F3D313B3F5807F4FEAF9
:10313000401232D8802B14D90623120A1949C868C4
:10314000C007FCD445F2555008604B60FFF7E2FF22
:103150000028FBD145F25553C2F30B020B608A6085
:1031600008BD402B02D90523D209E7E7202B02D95D
:1031700004239209E2E7102B03D9032320F07842BD
:10318000DCE7082B02D902231209D7E7042B8BBFF7
:1031900001230023D2089208D0E7062340F6FF72ED
:1031A000CCE700BF003000404AF6AA22014B1A606B
:1031B000704700BF00300040C3680B43C3607047D6
:1031C000C36823EA0103C360704703690B4214BF5D
:1031D000012000207047C9430161704710B50468A1
:1031E0001A4324F45C740A432243026010BD03684E
:1031F00043F080030360704781627047C16270478B
:10320000064A074B90421B6804BF064B1B6801EB44
:1032100043034900B3FBF1F383607047003801407A
:103220005400002058000020C36808290CBF23F474
:10323000805343F48053C3607047036923F44053C1
:103240000B4303617047C36823F4C0630B43C3603F
:103250007047C36823F00C030B43C3607047436996
:1032600023F440730B4343617047C36843F4005336
:10327000C3607047C1F30801416070474068C0F304
:10328000080070470122430903F1804303F504332A
:10329000196800F01F0002FA00F008431860704738
:1032A0000122430903F1804303F50433196800F058
:1032B0001F0002FA00F0014319601A6822EA0000B8
:1032C0001860704701290FD0022918D059B90E4B48
:1032D000D3F808240243C3F80824D3F80C2422EAC4
:1032E0000000C3F80C047047074BD3F8082422EA07
:1032F0000002C3F80824D3F80C241043F1E7024B72
:10330000D3F808240243F4E700000140054BD3F84A
:1033100000240243C3F80024D3F804241043C3F864
:103320000404704700000140064BD3F8001421EA62
:103330000001C3F80014D3F8042422EA0002C3F801
:103340000424704700000140014BC3F81404704787
:10335000000001402DE9F04F844600224FF0010E9D
:103360000F271E4EDFF87880DFF87890DFF878A01E
:103370000EFA02F313EA0C0F19D01C4B994225D018
:103380001AD8414524D0494524D0A1EB0A00434234
:10339000434106EB9204A40002F003052068AD004F
:1033A00007FA05FB20EA0B00AB401843206001320E
:1033B000102ADDD1BDE8F08F0D4B99420CD003F5FA
:1033C000806399420CBF06230023E2E70423E0E771
:1033D0000223DEE70323DCE70523DAE702400010DF
:1033E0000010014000140140000C01400018014091
:1033F000001C0140034A136823F0070303431360D2
:10340000704700BF00200240054B1A6942F080025D
:103410001A61044A5A6002F188325A60704700BF4C
:103420000020024023016745024A136943F08003EC
:10343000136170470020024008B5FFF78BFCC307FB
:10344000FBD408BD38B505460C4689B2FFF794FC9D
:10345000210CA81CBDE83840FFF78EBCFEE7704782
:10346000194B1A4A1A498B4219D30021194A93421F
:103470001AD34FF0E022D2F8143D174C43F40073F6
:10348000164DC2F8143DAC4211D3154C154DAC424B
:1034900011D3FFF719FB144C144DAC420FD352F863
:1034A000040B43F8040BDEE743F8041BDFE754F892
:1034B000043B9847E7E754F8043B9847E7E754F89C
:1034C000043B9847E9E700BF00000020384F0008A0
:1034D000880400201C1A0020E84D0008E84D000870
:1034E000E84D0008E84D0008E84D0008E84D0008E8
:1034F0004FF0E02320F07F40586170474FF0E0220A
:10350000136900F0040023F00403034313617047C0
:103510004FF0E022136943F00203136170474FF04C
:10352000E022136923F00203136170474FF0E02299
:10353000136943F0010313617047012243099B00A3
:1035400003F1604300F01F0003F5614302FA00F04D
:1035500018607047432893BF00F16040044B00F0AF
:103560000F0000F564408CBFC1540170704700BF6C
:1035700014ED00E046F6961380EA104080EA102031
:1035800080EA101000F00F0043FA00F000F0010094
:10359000704700BF03685A004CBF43F0004323F05C
:1035A00000431844704700BF2DE9F84339B34F1E5C
:1035B000044615463E464FF0000808EB060101EBB5
:1035C000D171491004EBC1094846FFF7E3FF0346F8
:1035D000C80008308F4220440BD0AB420BD8FFF715
:1035E000D9FF0138A84201F10108E6D34846BDE8F9
:1035F000F883AB42FAD9884501D04E1EDDE74FF083
:1036000000094846BDE8F883012807D0022807D002
:10361000044B00280CBF1846002070470248704732
:1036200002487047F93C0008FD3C0008013D0008D5
:1036300030B5244B044683B08D1E3BB3284601A908
:10364000AFF30080E8B101992A46FFF7ADFF0146CC
:10365000B8B1FFF79FFF4B68A064012B2ED0002B61
:1036600027DB081DFFF796FF0023C4E91303036857
:10367000002B12DBFFF78EFF03460020236103B00F
:1036800030BD00230920236103B030BD0E4B0F492C
:103690001846C91AC9100191D6E7C3F30360FFF7B2
:1036A000B3FF0028034614BF00200920236103B0A4
:1036B00030BD0123081DC4E91303D8E7002305200A
:1036C0002361DCE700000000184E0008384F0008B6
:1036D000036810B5DA07044606D49B0700F14800DA
:1036E00009D500F05DFC2368590709D51A070ED5E6
:1036F000DB0613D510BD00F04BFC23685907F5D449
:1037000004F1D00000F054FC23681A07F0D404F54B
:10371000A87000F055FC2368DB06EBD404F5E870D4
:10372000BDE8104000F090BC0920704703460068D7
:1037300000B11844704700BF704700BF70B5044621
:103740000E462046316CFFF773FF054698B9D6F850
:1037500040C03246214601202369C4F814C098476E
:103760000828EED0072806D12846316CFFF7E4FF81
:10377000301D00F001FC00F09BFE00BF2DE9F0477A
:103780004FF0000AADF5727D0DF10C0E01F1040C45
:10379000C768D0F8188006461446BCE80F00AEE8AB
:1037A0000F00BCE80F00AEE80F00BCE80F00AEE869
:1037B0000F009CE80F0002AD8EE80F00C5F800A0D6
:1037C00021E02B6C4FF4F072294673617AA800F067
:1037D00077FE3146504633697AAA9847889C8246DC
:1037E0006C643346324649460120CDE90058B8475B
:1037F0000446F0B94FF4F07228467AA900F060FE52
:10380000BAF1080F1BD13046296CFFF711FF04F104
:1038100009095FFA89FA04460028D2D0A96B334619
:10382000696432460120CDE900584AF01001B847DA
:1038300000B1092420460DF5727DBDE8F087BAF18C
:10384000070FF6D12046296CFFF776FF03A800F09A
:1038500093FB00BF406C7047F0B54FF0FF37CB6B68
:10386000F9B00B6401AC01F1040C0E460546BCE84E
:103870000F000FC4BCE80F000FC4BCE80F000FC45A
:103880009CE80F0084E80F00009706E06A4629468E
:103890002B6998470828044608D128461099FFF755
:1038A000C7FE0028F2D0092079B0F0BD6846FFF7C6
:1038B0000FFF062CF7D131462846FFF73FFF00BF28
:1038C00010B414468461DC6BC16000221C6419468C
:1038D00010BC53E770B54369C6680B64AEB90A46BD
:1038E000036904460D46014602209847072805D083
:1038F00008280FD129462046FFF720FF3046296CC3
:10390000FFF71AFF281D00F037FB0122FFF736FFF3
:1039100000F0CEFD00F0CCFDC2682AB1D1F83CC069
:103920000022C1F840C029E796E700BF704700BFFA
:10393000836801460BB1012018477047012912D056
:1039400009D873B90F2A0CD800EB820042681846D8
:10395000009B1A6070470339012994BF012002209F
:103960007047022070470846704700BF002300B52B
:1039700085B00A4603A900911946FFF7DFFF0398B7
:1039800005B05DF804FB00BF012912D009D873B956
:103990000F2A0CD8009900EB820209681846516082
:1039A00070470339012994BF01200220704702208B
:1039B00070470846704700BF002310B584B003ACC1
:1039C000039200940A461946FFF7DEFF04B010BDCB
:1039D00070B54FF0FF36D36BADF50E7D13640DF16E
:1039E0005C0E02F1040C05460C46BCE80F00AEE884
:1039F0000F00BCE80F00AEE80F00BCE80F00AEE817
:103A00000F009CE80F008EE80F00169612E00C21C4
:103A100016A86A46FFF7D0FF214616A8A84778B92E
:103A200069460820049B16AA98470528064608D030
:103A3000092805D068462699FFF7FAFD0028E6D048
:103A4000092616A8FFF744FE30460DF50E7D70BD21
:103A50002DE9F04F1E46CC6C89B054F8043B0D465E
:103A6000174600F003080694002E79D002228DF844
:103A70001C201A0C8DF81D201B04D2B2059304EBF8
:103A800082042B6DB8F1020F08BFAC6B13F0010379
:103A90000CD0384605A900F071FB18B9082009B010
:103AA000BDE8F08F092009B0BDE8F08FD4F800A080
:103AB000BAF1000FEDD0019300F008030293022E3B
:103AC0004AD0B4F800A0B4F802900434AA6C0F21D4
:103AD000384629F0010B9344FFF748FF834539D856
:103AE0002AF001025A44824294BF002001204FEA8A
:103AF000490303F002030AF0010A43EA0A03012B17
:103B000049D0022B32D0002BCCD1B8F1000F02D01B
:103B1000002840F0CE800434D4F800A0BAF1000FA1
:103B2000CDD1384605A900F029FB0028BAD1019B68
:103B3000002BB3D00F213846FFF718FF0E210246A5
:103B40003846FFF739FF38460F216A4AFFF734FF3E
:103B50000720A8E70020CAE7D4F804900834B5E7A6
:103B60001B0205930323ADF81C308AE7236823F07A
:103B7000004BB8F1000F45D128B1029A002A5CD061
:103B8000BBF1000F74D0002B00DA04340BF1010BF1
:103B900004EB8B04C0E7B8F1000F19D1B0B1636832
:103BA0002268991C4FEAD2723FF47CAF05F15801AC
:103BB0000133049100F09180201DFFF7B7FD04ABA5
:103BC00001462846AFF3008000285CD10834A3E703
:103BD0000D213846D5F82090FFF7C8FE8145F5D174
:103BE000AB6A9C42F2D12046FFF7D4FC0F2102467B
:103BF0003846FFF7E1FE38462A460021FFF7DCFE93
:103C0000072050E70D213846D5F82090FFF7AEFE8B
:103C1000814501D02368B6E7AB6A9C42FAD1042300
:103C20000022C5E90B23E318C5F828B06B632368AD
:103C3000002B5ADB01230193A8E705F15803CDF8C7
:103C40000C809146B04604F1040A1E460EE0504630
:103C50000496FFF76BFD0022014604AB284609F1EC
:103C600001090AF1040AAFF30080E8B9D945EED1A1
:103C70000D213846FFF77AFE0346049A0620C5E96F
:103C800009242B620FE781460D213846FFF76EFEAF
:103C9000B9F1020F286225D12B46049A43F82C2F44
:103CA0006B620620AC62FEE646462368DDF80C80B7
:103CB00069E72046FFF76EFC02460434AC632846F1
:103CC0001446AFF3008000283FF4ECAE384622469D
:103CD0000F21FFF771FE0720E5E60D213846FFF7BB
:103CE00045FE2862049B6B62DBE70BF1010004EBED
:103CF000800079E7000000000023A9E60123A7E681
:103D00000223A5E62DE9F043064615461C46C3B03E
:103D1000042900F2B880DFE801F09C56B62D0300BC
:103D2000002C40F0B080102A00F2AD800368D80665
:103D300000F1F18020AF384600F090F901243846B8
:103D40000023B16B04FA03F22A4203F1010305D008
:103D50000A4652F804CB1146C0F800C0042B00F10B
:103D60000400EFD13846B16300F06EF9002043B093
:103D7000BDE8F083032C40F0868094B204EB12433C
:103D8000102B4FEA12457ED803681F0700F1CB8045
:103D900020AF384600F036F9B26B07EBC50154B1DD
:103DA0000B4601EBC401D01AE4001D5843F8045B34
:103DB0008B42FAD122443846B26300F001F9002068
:103DC00043B0BDE8F083012C4FEA124895B256D0BB
:103DD000052C58D108EB0509B9F1200F53D8B8F1DB
:103DE0000F0F73D9A946002D40F08480B36B65B3E3
:103DF00020AF4FF0000907EBC807043F03EBC505F0
:103E000053F8041BAB4247F8041FF9D1B9F1000F76
:103E10000FD06F464146102938BF102107EBC10172
:103E2000843903EBC90553F8040BAB4241F8040F86
:103E3000F9D1012C7FD0B8F10F0FB56342D9B9F198
:103E4000000F02D0684600F0B3F8002043B0BDE890
:103E5000F083C4B923460124826B371DA8B204FA4B
:103E600003F101421CBF52F8041B47F82310013331
:103E7000102BF4D115F40050E7D1B26304E008EB45
:103E80000503102B03D9022043B0BDE8F083B8F13D
:103E90000F0FF8D83368DA0706D5304623F003034E
:103EA00040F8483B00F078F820AF384600F074F84E
:103EB000B36B002D9DD11D4604353846B56300F027
:103EC00067F8C2E720A800F06BF8B8E7B9F1100F67
:103ED0003FD9A9F110093368D90708D5304623F036
:103EE000010343F0020340F8483B00F05DF8B9F1EC
:103EF000000F31D033685A071FD4B8F10F0F24D9FF
:103F00006F46C8F11005384600F056F8002DB36B27
:103F100080DD20AF6FE723F01003336006F5E87013
:103F200000F09CF806E723F00803036000F5A87092
:103F300000F068F82CE720AFBEE7304623F004031A
:103F400040F8D03B00F038F8D7E720A800F02CF874
:103F5000D6E74FF00009BEE7B8F10F0F3FF646AFC6
:103F600020AF384600F020F8B36B002D7FF441AF4E
:103F7000384600F015F868E700F1340191E83800A0
:103F80009C46A6464CF8045D90E8FF0FE54600BD50
:103F900090EC210B704700BF80EC210B704700BFF5
:103FA00090EC200B704700BF80EC200B704700BFE7
:103FB000D0EC200B704700BFC0EC200B704700BF57
:103FC000F0EC0201F0EC0211F0EC0221F0EC023115
:103FD000F0EC0241F0EC0251F0EC0261F0EC027105
:103FE000F0EC0281F0EC0291F0EC02A1F0EC02B1F5
:103FF000F0EC02C1F0EC02D1F0EC02E1F0EC02F1E5
:10400000704700BFE0EC0201E0EC0211E0EC02219D
:10401000E0EC0231E0EC0241E0EC0251E0EC026144
:10402000E0EC0271E0EC0281E0EC0291E0EC02A134
:10403000E0EC02B1E0EC02C1E0EC02D1E0EC02E124
:10404000E0EC02F1704700BFB0FC0181B0FC0191CF
:10405000B0FC01A1B0FC01B1704700BFA0FC018120
:10406000A0FC0191A0FC01A1A0FC01B1704700BF20
:10407000EC4600B52DE900502DE9FF1F4FF000037D
:104080002DE90C0001A9FFF7E7FBDDF840E012B0D5
:10409000704700BFEC4600B52DE900502DE9FF1F29
:1040A0004FF000032DE90C0001A9FFF713FCDDF828
:1040B00040E012B0704700BFEC4600B52DE900505B
:1040C0002DE9FF1F4FF000032DE90C0001A9FFF7B8
:1040D00023FCDDF840E012B0704700BFEC4600B5AD
:1040E0002DE900502DE9FF1F4FF000032DE90C00D2
:1040F00001ABFFF7E5FBDDF840E012B0704700BF11
:10410000EC4600B52DE900502DE9FF1F4FF00003EC
:104110002DE90C0001AAFFF75BFCDDF840E012B0CE
:10412000704700BF027A03467AB9427AA2B14FF0D3
:10413000030C4168013A427208680A1D5A60020283
:1041400083F808C0000E1A6070470068013A1A72BE
:1041500002021A60000E7047B0207047002300B5BD
:1041600085B003A900910C221946FFF7E7FB0398DD
:1041700005B05DF804FB00BFF0E700BF2DE9F04398
:104180004FF0000805460E4685B03046FFF7CAFFDF
:10419000B028044600F0BA80070620D500F0F003EE
:1041A000802B4DD0902B36D0A02B60D0B02B73D06D
:1041B000C02B00F08A8000F0F803D02B0BD100F068
:1041C0000702013205230121284642F40022FFF7AD
:1041D00099FD0028D9D0092005B0BDE8F0838300FF
:1041E000DBB21F1D00230DF10C0919460D222846D4
:1041F000CDF80090FFF7A2FB039B60064CBFDF1BCE
:10420000FF1800230D2228461946CDF80090039789
:10421000FFF7BAFBB9E700F00D030D2BDBD000234D
:1042200003AF194600F00F0200972846FFF786FB00
:1042300000230D22284619460097FFF7A5FBA4E7A7
:104240003046FFF76FFF24022043B0F5004FC2D085
:104250000023040119462846A2B2FFF753FD0028A7
:10426000B9D114F4004F18BF4FF001088DE7C343D4
:104270004FF47F6203F007031A410023010702F4A1
:104280007F6248BF42F4804228461946FFF73AFD54
:1042900000283FF47AAF9EE7B1283CD0B22800F066
:1042A000B080B3284AD000F0FC03B42B93D0012394
:1042B00000F007021A442846194642F40022FFF78C
:1042C00021FD00283FF461AF85E7C6284FD0C728FD
:1042D00061D000F0F803C02B70D0C8287CD0C9286A
:1042E0007FF479AF3046FFF71DFF05230246012119
:1042F0002846140302F00F0204F470240A442243F7
:10430000FFF700FD00283FF440AF64E7B8F1000F6D
:104310001CD0002060E73046FFF704FF024600286B
:104320003FF459AF10F0F0037FF455AF194628461B
:10433000FFF7E8FC00283FF428AF4CE73046FFF7D2
:10434000F1FE0123024619462846D2E703AC434654
:104350000E22414628460094FFF7F0FA43460F220A
:10436000284641460094FFF70FFB404634E73046AD
:10437000FFF7D8FE02460323140302F00F0204F4F1
:1043800070240132284619462243FFF7BBFC00285F
:104390003FF4FBAE1FE73046FFF7C4FE024600289D
:1043A0003FF419AF10F0F0037FF415AF0421284655
:1043B000FFF7A8FC00283FF4E8AE0CE7032300F069
:1043C0000F0201322846194642F42022FFF79AFCD8
:1043D00000283FF4DAAEFEE63046FFF7A3FE0246C1
:1043E000012102F0F00402F00F0210340A44052308
:1043F000284642EA0432FFF785FC00283FF4C5AEA8
:10440000E9E600230DF10C090D2219462846CDF8E6
:104410000090FFF793FA3046FFF784FE02064FF054
:1044200002040CD5039B00F07F00A04018440390C9
:104430003046FFF777FE030604F10704F2D4039B2E
:1044400000F07F02A24003F501731A440023039297
:1044500028460D221946CDF80090FFF795FA94E60C
:104460000B464FF0030C00B5C26C1846536885B07C
:104470000832029201A91A0E1B028DF80CC001939A
:104480008DF80D20FFF77AFE05B05DF804FB00BF44
:1044900008B5FFF771FE806C08BD00BF08B5FFF7D7
:1044A0006BFEC06CC379023300EB830008BD00BF14
:1044B000062008B500F07AF8012000F0CBF800BF24
:1044C000844641EA000313F0030349D1403A23D361
:1044D0000B6803604B6843608B688360CB68C36084
:1044E0000B6903614B6943618B698361CB69C3616C
:1044F0000B6A03624B6A43628B6A8362CB6AC36254
:104500000B6B03634B6B43638B6B8363CB6BC3633B
:1045100040304031403ADBD230320BD30B6803607D
:104520004B6843608B688360CB68C3601030103188
:10453000103AF3D20C3205D351F8043B40F8043B57
:10454000043AF9D2043208D0D2071CBF11F8013B5B
:1045500000F8013B01D30B8803806046704700BF21
:10456000082A13D38B07B1D010F00303AED0C3F1E8
:104570000403D21ADB071CBF11F8013B00F8013B12
:10458000A4D331F8023B20F8023B9FE7043AD9D389
:10459000013A11F8013B00F8013BF9D20B780370A6
:1045A0004B7843708B7883706046704738B5154BF5
:1045B0001F281D6820D8D5F8DC22044662B152F8C5
:1045C00020304BB1012B15D0591C0FD0002542F8DB
:1045D00020509847284638BD284600F029F8224642
:1045E00001462846BDE8384000F00EB816230120E9
:1045F0002B6038BD002038BD16234FF0FF302B60F4
:1046000038BD00BF5C00002070B50026074D044691
:10461000084611462E6000F015F8431C00D070BD0E
:104620002B68002BFBD0236070BD00BF181A002040
:1046300000F000B85822024B4FF0FF301A6070476C
:10464000181A00205822024B4FF0FF301A607047B2
:10465000181A0020FEE700BF496E636F6D70617429
:1046600069626C652044617461626173652076657E
:104670007273696F6E2E20506C6561736520757062
:1046800064617465206974210D0A0A0054696D65BE
:10469000203E2031306D73206F6E20545800000092
:1046A00057616974696E6720757020746F20322EAF
:1046B000357320746F20706F776572207570207469
:1046C0006865206B6579626F61726420616E642039
:1046D00072756E204241542E2E2E0A004241542003
:1046E0004F4B0D0A000000005265636569766564F2
:1046F0002030780050532F32204B6579626F617201
:10470000642064657465637465640A005479706537
:104710002032202844656C61792031207365636FF5
:104720006E6420746F207265706561742E20326330
:1047300070732072657065617420726174652920E0
:104740004F4B0A00547970652033204469736162CD
:104750006C657320747970656D617469632030785D
:10476000464120726570656174204F4B0A0000005D
:104770004E6F74204F4B20617420666972737420F1
:10478000617474656D7074004E6F74204F4B2061BE
:1047900074207365636F6E6420617474656D7074EA
:1047A000000000004E6F74204F4B2061742074682D
:1047B00069726420617474656D70740D0A00000084
:1047C000202020446F6E650D0A00000052444552BF
:1047D000523A20526561642050726F746563746947
:1047E0006F6E204572726F7220287063726F70292D
:1047F0000D0A00005047534552523A2050726F67DD
:1048000072616D6D696E672073657175656E636544
:10481000206572726F720D0A00000000464C415311
:10482000485F53525F57525052544552523A2057A4
:10483000726974652070726F74656374696F6E203D
:104840006572726F720D0A000D0A436C65616E75B8
:104850007020446174616261736520466C617368A5
:104860002E2053656E64202620746F2070726F6353
:10487000656564206F7220616E79206F746865725F
:10488000206B657920746F2061626F727420000064
:104890000D0A45726173696E6720666C61736820EA
:1048A0006D656D6F72792E2E2E0D0A426173652033
:1048B00041646472657373202053697A65202053C4
:1048C00074617475730D0A00202020002020000000
:1048D0000D0A0A496E697469616C697A696E6720AC
:1048E00044656661756C74204461746162617365CE
:1048F000206F6E20666C617368206D656D6F7279D4
:104900002E2E2E000D0A0A426173652041646472E6
:10491000657373202053697A650D0A0020202020DA
:10492000000000000D0A0A566572696669636174C9
:10493000696F6E206F66207772697474656E20648B
:104940006174613A0D0A000057726F6E67206461EE
:104950007461207772697474656E20696E746F205B
:10496000666C617368206D656D6F72790D0A000069
:104970004465737420616464203D3E2030780000FB
:104980002C20666F756E64203D203078000000009A
:104990002E20536F7572636520616464203D3E2054
:1049A000307800002C20776173203D2030780000A3
:1049B0000D0A0A212121417474656E74696F6E219C
:1049C0002121203D3E204E6F2076616C6964204499
:1049D0006174616261736520666F756E642E20502C
:1049E0006C656173652075706461746520697421FC
:1049F0000D0A0A00204572726F723A20496E766184
:104A00006C6964000D0A0A0A0A4552524F52206925
:104A10006E20496E74656C204865782E2045525290
:104A20004F520D0A0A506C6561736520726573659B
:104A30006E642074686520496E74656C20486578E2
:104A40002E2E2E000D0A0A0A0A2121212121494E6B
:104A500054455252555054454421212121210D0ADB
:104A60000A506C6561736520726573656E642074AD
:104A7000686520496E74656C204865782E2E2E007E
:104A80000D0A0A536561726368696E6720666F720A
:104A900020616E20656D7074792033323030206271
:104AA0007974657320696E20736563746F72203347
:104AB000206F6620666C617368206D656D6F72791A
:104AC0002E2E2E0D0A426173652041646472657357
:104AD00073202053697A6520205374617475730DB7
:104AE0000A00000020204E6F7420617661696C61BD
:104AF000626C650D0A00000020204F6B210D0A003A
:104B00000D0A50726F6772616D6D696E6720666C19
:104B1000617368206D656D6F72792E2E2E0D0A42BD
:104B20006173652041646472657373202053697AF0
:104B300065202052414D20416464726573730D0AF3
:104B40000000000020203078000000002852414D75
:104B50002062756666657220616464726573732095
:104B60003D203078000000002E20576173203D204A
:104B7000307800002C207768696C6520666C617362
:104B800068206164647265737320307800000000EF
:104B90002072656D61696E73206572617365642E44
:104BA0000D0A4C6F636B65642100000057726F6ED5
:104BB000672064617461207772697474656E20691E
:104BC0006E746F20666C617368206D656D6F7279AD
:104BD0003A0D0A4465737420616464203D3E2030C0
:104BE000780000000D0A0A4E756C6C696E672066CD
:104BF0006F726D65722044617461626173653A0D14
:104C00000A000000203C3D204F6B0D0A0000000010
:104C1000203C3D2057726F6E670D0A000D0A5375D8
:104C2000636365737366756C6C79207772697474ED
:104C3000656E206461746162617365206174203007
:104C4000780000002E0D0A0A4E6F772C20706C65DC
:104C5000617365205455524E204F464620746F2094
:104C6000706C7567207468652050532F32206B6517
:104C700079626F6172642100546F20757064617491
:104C800065207468652044617461626173652C20DD
:104C9000706C656173652073656E6420746865204F
:104CA0006E65772066696C6520696E20496E746553
:104CB0006C2048657820666F726D61742100000079
:104CC0000D0A4F72207475726E206F6666206E6FCB
:104CD000772E00000D0A57726F6E672076616C7533
:104CE00065206F6620464C4153485F53523A20007E
:104CF00000CA9A3B00E1F5058096980040420F00FB
:104D0000A086010010270000E803000064000000F6
:104D10000A000000010000000A0A0A426F6F74696D
:104D20006E672E2E2E0A0D4275696C74206F6E20F0
:104D3000000000004E6F76202035203230323100E6
:104D40002000000031323A30373A323000000000A3
:104D50000A0A0D00436F6E6669677572696E673A7D
:104D60000A0D2D20355620636F6D70617469626C79
:104D7000652070696E20706F72747320616E64209C
:104D8000696E746572727570747320746F20696EC9
:104D90007465726661636520746F204D53583B0AD9
:104DA0000D0000002D205379735469636B3B0A009A
:104DB0002D2048696768207265736F6C7574696F20
:104DC0006E2074696D657220323B0A002D205053AD
:104DD0002F3220506F72743B0A00000048617264E9
:084DE000204661756C7421008E
:104DE80008B10181B0B000840000000008B1018161
:104DF800B0B000840000000008B10181B0B00084A8
:104E08000000000008B10181B0B00084000000007B
:104E180038B3FF7FB0B0A88050B5FF7F0100000015
:104E2800D8B5FF7FB0A80180CCB8FF7FB0B0A8800C
:104E3800ECB8FF7FB0A90480A8BDFF7FB0A80180AF
:104E48008CC0FF7FB0B0A8809CC1FF7F010000002C
:104E580054CCFF7F8CFFFF7F9CCCFF7FB0A80180E4
:104E6800A0CDFF7F0100000058DCFF7FB0A90280C1
:104E7800CCDEFF7F78FFFF7FD4DEFF7F01000000DC
:104E8800A8E7FF7FB0A9028040E8FF7FB0B0A88004
:104E980090E8FF7F010000009CE8FF7FB0B0AA8087
:104EA800D4E8FF7FAE71B280A4E9FF7F0100000063
:104EB800A0E9FF7FAB3F388000EAFF7F01000000D8
:104EC8000CEAFF7FB0B0AA8048EAFF7F010000002B
:104ED800F8EAFF7FAA0DB28070EBFF7FB0AF0880C1
:104EE80010EEFF7F0100000014EEFF7FAD3F02804F
:104EF80080F0FF7F010000005CF2FF7F00840480E7
:104F080070F2FF7F010000006CF2FF7FB0AD0480FB
:104F180048F5FF7F0084048070F5FF7FDCFEFF7F8B
:104F280074F5FF7FE0FEFF7F80F5FF7F0100000042
:104F380000000000010204081020000000FF00002B
:104F480000FF000000FF000000FF000000FF00005D
:104F580000FF000000FF000000FF000000FF00004D
:104F680000FF000000FF000000FF000000FF00003D
:104F780000FF000000FF000000FF0000010100002A
:104F880000127A0000127A0000127A0060000020F5
:104F9800000000004C030020B40300201C04002083
:104FA80000000000000000000000000000000000F9
:104FB80000000000000000000000000000000000E9
:104FC80000000000000000000000000000000000D9
:104FD80000000000000000000000000000000000C9
:104FE80000000000000000000000000000000000B9
:104FF80000000000000000000000000000000000A9
:105008000000000000000000000000000000000098
:105018000000000000000000000000000000000088
:105028000000000000000000000000000000000078
:105038000000000000000000010000000000000067
:105048000E33CDAB34126DE6ECDE05000B0000002C
:105058000000000000000000000000000000000048
:105068000000000000000000000000000000000038
:105078000000000000000000000000000000000028
:105088000000000000000000000000000000000018
:107100000101FFFFFFFFFFFFFFFF010000F46070C0
:10711000FFFFFFFF030000F471FFFFFFFFFF04000C
:1071200000F467FFFFFFFFFF050000F465FFFFFFAE
:10713000FFFF060000F466FFFFFFFFFF070000F4FB
:1071400074FFFFFFFFFF090000F46071FFFFFFFF06
:107150000A0000F46067FFFFFFFF0B0000F46065AA
:10716000FFFFFFFF0C0000F470FFFFFFFFFF0D00AB
:1071700000F473FFFFFFFFFF0E0000F66016FFFF35
:107180006006110000F464FFFFFFFFFF120000F42F
:1071900060FFFFFFFFFF140000F461FFFFFFFFFF30
:1071A000150000F446FFFFFFFFFF160000F401FF8B
:1071B000FFFFFFFF1A0000F457FFFFFFFFFF1B0058
:1071C00000F450FFFFFFFFFF1C0000F426FFFFFF4D
:1071D000FFFF1D0000F454FFFFFFFFFF1E0000F43F
:1071E00002FFFFFFFFFF210000F430FFFFFFFFFF62
:1071F000220000F455FFFFFFFFFF230000F431FFE2
:10720000FFFFFFFF240000F432FFFFFFFFFF250018
:1072100000F404FFFFFFFFFF260000F403FFFFFF61
:10722000FFFF290000F480FFFFFFFFFF2A0000F4AA
:1072300053FFFFFFFFFF2B0000F433FFFFFFFFFFB3
:107240002C0000F451FFFFFFFFFF2D0000F447FF6B
:10725000FFFFFFFF2E0000F405FFFFFFFFFF3100DF
:1072600000F443FFFFFFFFFF320000F427FFFFFFA2
:10727000FFFF330000F435FFFFFFFFFF340000F491
:1072800034FFFFFFFFFF350000F456FFFFFFFFFF55
:10729000360000FE06FFFFFF68163A0000F442FFCA
:1072A000FFFFFFFF3B0000F437FFFFFFFFFF3C0045
:1072B00000F452FFFFFFFFFF3D0000F407FFFFFF58
:1072C000FFFF3E0000F410FFFFFFFFFF410000FE44
:1072D00022FFFFFF6825420000F440FFFFFFFFFF91
:1072E000430000F436FFFFFFFFFF440000F444FFBB
:1072F000FFFFFFFF450000F400FFFFFFFFFF460018
:1073000000F411FFFFFFFFFF490000FE23FFFFFF16
:1073100025FF4A0000FE6022FFFF60234B0000F4BF
:1073200041FFFFFFFFFF4C0000F417FFFFFFFFFFCF
:107330004D0000F445FFFFFFFFFF4E0000F412FF79
:10734000FFFFFFFF510000F424FFFFFFFFFF52008B
:1073500000F420FFFFFFFFFF540000F415FFFFFFC4
:10736000FFFF550000F413FFFFFFFFFF580000F47C
:1073700063FFFFFFFFFF590000F460FFFFFFFFFF07
:107380005A0000F477FFFFFFFFFF5B0000FE602163
:10739000FFFF64555D0000FE21FFFFFF64556100A3
:1073A00000F414FFFFFFFFFF660000F475FFFFFF0E
:1073B000FFFF690000F401FFFFFFFFFF6B0000FD0E
:1073C00068046884FFFF6C0000FD68076881FFFFA8
:1073D0006D0000F423FF23FFFFFF700000FD680035
:1073E0006882FFFF710000FD22FF6883FFFF7200CB
:1073F00000FD68026886FFFF730000F405FF05FFCB
:10740000FFFF740000FD68066887FFFF750000FD40
:1074100068106885FFFF760000F472FFFFFFFFFF32
:10742000770000F45FFF5FFFFFFF790000F4601357
:10743000FFFFFFFF7A0000F403FFFFFFFFFF7B0069
:1074400000F412FFFFFFFFFF7C0000F46010FFFF5D
:10745000FFFF7D0000F411FFFFFFFFFF7E0000F43F
:1074600064FFFFFFFFFF830000F46067FFFFFFFF83
:10747000E01100F464FFFFFFFFFFE01400F461FF80
:10748000FFFFFFFFE01F00F462FFFFFFFFFFE027A9
:1074900000F462FFFFFFFFFFE02F00F476FFFFFF25
:1074A000FFFFE04A00F424FFFFFFFFFFE05A00F473
:1074B00077FFFFFFFFFFE06B00F484FFFFFFFFFF9C
:1074C000E06C00F481FFFFFFFFFFE07000F482FF3B
:1074D000FFFFFFFFE07100F483FFFFFFFFFFE0729B
:1074E00000F486FFFFFFFFFFE07400F487FFFFFF5B
:1074F000FFFFE07500F485FFFFFFFFFFE07E00F473
:1075000074FFFFFFFFFFE0F011F46CFFFFFFFFFFD0
:10751000E0F014F469FFFFFFFFFFE0F01FF46AFFE3
:10752000FFFFFFFFE0F027F46AFFFFFFFFFFE0F03F
:107530002FF47EFFFFFFFFFFE0F04AF42CFFFFFF78
:10754000FFFFE0F05AF47FFFFFFFFFFFE0F06BF476
:107550008CFFFFFFFFFFE0F06CF489FFFFFFFFFFF0
:10756000E0F070F48AFFFFFFFFFFE0F071F48BFFA3
:10757000FFFFFFFFE0F072F48EFFFFFFFFFFE0F080
:1075800074F48FFFFFFFFFFFE0F075F48DFFFFFF46
:10759000FFFFE11477F474FFFFFFFFFFF00100F439
:1075A0006878FFFFFFFFF00300F479FFFFFFFFFFA4
:1075B000F00400F46FFFFFFFFFFFF00500F46DFF24
:1075C000FFFFFFFFF00600F46EFFFFFFFFFFF00775
:1075D00000F47CFFFFFFFFFFF00900F46879FFFF74
:1075E000FFFFF00A00F4686FFFFFFFFFF00B00F4ED
:1075F000686DFFFFFFFFF00C00F478FFFFFFFFFF57
:10760000F00D00F47BFFFFFFFFFFF00E00F6681E99
:10761000FFFF680EF01100F46CFFFFFFFFFFF01298
:1076200000F468FFFFFFFFFFF01400F469FFFFFFA5
:10763000FFFFF01500F44EFFFFFFFFFFF01600F410
:1076400009FFFFFFFFFFF01A00F45FFFFFFFFFFFDE
:10765000F01B00F458FFFFFFFFFFF01C00F42EFFAB
:10766000FFFFFFFFF01D00F45CFFFFFFFFFFF01EB8
:1076700000F40AFFFFFFFFFFF02100F438FFFFFFD7
:10768000FFFFF02200F45DFFFFFFFFFFF02300F497
:1076900039FFFFFFFFFFF02400F43AFFFFFFFFFF79
:1076A000F02500F40CFFFFFFFFFFF02600F40BFFB6
:1076B000FFFFFFFFF02900F488FFFFFFFFFFF02A24
:1076C00000F45BFFFFFFFFFFF02B00F43BFFFFFF29
:1076D000FFFFF02C00F459FFFFFFFFFFF02D00F437
:1076E0004FFFFFFFFFFFF02E00F40DFFFFFFFFFF36
:1076F000F03100F44BFFFFFFFFFFF03200F42FFFEB
:10770000FFFFFFFFF03300F43DFFFFFFFFFFF0340A
:1077100000F43CFFFFFFFFFFF03500F45EFFFFFFCA
:10772000FFFFF03600FE0EFFFFFF681EF03A00F488
:107730004AFFFFFFFFFFF03B00F43FFFFFFFFFFFAB
:10774000F03C00F45AFFFFFFFFFFF03D00F40FFF95
:10775000FFFFFFFFF03E00F418FFFFFFFFFFF041C7
:1077600000FE2AFFFFFF682DF04200F448FFFFFFF4
:10777000FFFFF04300F43EFFFFFFFFFFF04400F483
:107780004CFFFFFFFFFFF04500F408FFFFFFFFFF86
:10779000F04600F419FFFFFFFFFFF04900FE2BFF4A
:1077A000FFFF2DFFF04A00FE682AFFFF682BF04B19
:1077B00000F449FFFFFFFFFFF04C00F41FFFFFFF45
:1077C000FFFFF04D00F44DFFFFFFFFFFF04E00F410
:1077D0001AFFFFFFFFFFF05100F42CFFFFFFFFFF38
:1077E000F05200F428FFFFFFFFFFF05400F41DFFEC
:1077F000FFFFFFFFF05500F41BFFFFFFFFFFF058F6
:1078000000F46BFFFFFFFFFFF05900F468FFFFFF7C
:10781000FFFFF05A00F47FFFFFFFFFFFF05B00FE69
:107820006829FFFF6C5DF05D00FE29FFFFFF6C5DC6
:10783000F06100F41CFFFFFFFFFFF06600F47DFF26
:10784000FFFFFFFFF06900F409FFFFFFFFFFF06B90
:1078500000FD680C688CFFFFF06C00FD680F688904
:10786000FFFFF06D00F42BFF2BFFFFFFF07000FD1A
:107870006808688AFFFFF07100FD2AFF688BFFFF30
:10788000F07200FD680A688EFFFFF07300F40DFFD0
:107890000DFFFFFFF07400FD680E688FFFFFF075AD
:1078A00000FD6818688DFFFFF07600F47AFFFFFF97
:1078B000FFFFF07700F45FFF5FFFFFFFF07900F458
:1078C000681BFFFFFFFFF07A00F40BFFFFFFFFFFD5
:1078D000F07B00F41AFFFFFFFFFFF07C00F4681854
:1078E000FFFFFFFFF07D00F419FFFFFFFFFFF07EB9
:1078F00000F46CFFFFFFFFFFF08300F4686FFFFFF1
:10790000FFFFFFFFFFFFFFFFFFFFFFFFFFFFFFFF87
:10791000FFFFFFFFFFFFFFFFFFFFFFFFFFFFFFFF77
:10792000FFFFFFFFFFFFFFFFFFFFFFFFFFFFFFFF67
:10793000FFFFFFFFFFFFFFFFFFFFFFFFFFFFFFFF57
:107D7000FFFFFFFFFFFFFFFFFFFFFFFFFFFF44705D
:04000005080034615A
:00000001FF
